:020000040800F2
:100000007030002011030008933F0008293D0008CC
:10001000913F0008B121000881470008000000005E
:10002000000000000000000000000000790200084D
:100030002F22000800000000BD0200089D3F0008BC
:100040002B0300082B0300082B0300082B030008D8
:100050002B0300082B0300082B0300082B030008C8
:100060002B0300082B0300082B0300082B030008B8
:10007000B5210008C1210008CD210008E9210008B0
:100080002B0300082B0300082B0300082B03000898
:100090002B0300082B0300082B0300082B03000888
:1000A0002B0300082B0300082B0300082B03000878
:1000B000294000082B030008354000082B030008E6
:1000C0002B0300082B0300082B0300082B03000858
:1000D0002B030008654700082B0300082B030008CA
:1000E0002B0300082B0300082B0300082B03000838
:1000F0002B0300082B0300082B0300082B03000828
:100100002B0300082B0300082B0300082B03000817
:100110002B0300082B0300082B0300082B03000807
:100120002B0300082B0300082B0300082B030008F7
:1001300000F002F800F090F80AA090E8000C824469
:100140008344AAF10107DA4501D100F085F8AFF246
:10015000090EBAE80F0013F0010F18BFFB1A43F0A5
:10016000010318473073000050730000103A24BF99
:1001700078C878C1FAD8520724BF30C830C144BF0C
:1001800004680C607047000000230024002500264E
:10019000103A28BF78C1FBD8520728BF30C148BFEA
:1001A0000B6070476E2900F08183702900F0C384D2
:1001B000662907F02980652907F02680672907F05E
:1001C0002380612907F0228003681B0A28BF41F0C1
:1001D0008001692900F02E83642900F02B837529A2
:1001E00000F028836F2900F05084782900F08F8474
:1001F000E92900F0EB83E42900F0E883F52900F019
:10020000E583EF2900F04D84F82900F08E8403681F
:10021000DB0928BF41F08001632901F0578273296F
:1002200001F05C82E32901F06782F32901F06C821E
:10023000002070471FB501F01FFB040000200021C3
:1002400006F0B6FF401C60600020002106F0C6FFEB
:10025000E0601FBD10B510BD01F0E8FA1146FFF7D0
:10026000E9FF04F09FFE01F0CBFB03B4FFF7F2FFC0
:1002700003BC01F0CFFB0000224B19680868B0E80E
:10028000F00F80F30988BFF36F8F4FF0000080F309
:1002900011884EF00D0E70470000000006480068FF
:1002A000006880F3088862B661B6BFF34F8FBFF372
:1002B0006F8F00DF00BF00BF08ED00E0EFF30980A3
:1002C000BFF36F8F0F4B1A6820E9F00F106008B56D
:1002D0004FF0500080F31188BFF34F8FBFF36F8F43
:1002E00006F0FCF84FF0000080F31188BDE80840EC
:1002F00019680868B0E8F00F80F30988BFF36F8FC2
:10030000704700BF14000020EFF305807047000025
:100310000948804709480047FEE7FEE7FEE7FEE799
:10032000FEE7FEE7FEE7FEE7FEE7FEE704480549D5
:10033000054A064B704700002740000831010008BD
:10034000702A002070300020702C0020702C0020BB
:100350001CB50C46064B7B4469460090204600F0D5
:10036000BEFA04460020694600F0CCFA20461CBDC7
:10037000AB05000070B5064600F0F6F904680546C6
:1003800030460A22002100F0A5FC2C6070BD000060
:10039000014A00F0D7BC0000CC00002040EA010375
:1003A000024630B59B0710D14FF0013400E008C27F
:1003B00008C91D1B9D4315EAC41FF8D013F0FF01A7
:1003C00002F8011B0DD01B0AF8E711F8013B002BC6
:1003D00002F8013B05D011F8013B002B02F8013B6C
:1003E000F3D130BD10B5431C02E010F8011B71B110
:1003F0008107FAD14FF0013202C88C1A8C4314EAFB
:10040000C211F9D0C01A0A0603D0C01E10BDC01A0E
:1004100010BD0A0401D0801E10BD0902FCD0401E90
:1004200010BD40EA010370B59B072ED14FF0013695
:10043000042A2AD308C810C99D1B9D43121F15EA20
:10044000C61517D0D8B2E1B2401A50EA056110D1F2
:1004500098B2A1B2401A50EA05410AD123F07F4078
:1004600024F07F41401A50EA052102D1180EA0EB7A
:10047000146070BDA342DBD018BA21BA884201D9FA
:10048000012070BD4FF0FF3070BD0AB9002070BD73
:1004900010F8013B11F8014B63B1A3420AD1521E7F
:1004A00008D010F8013B11F8014B1BB1A34201D158
:1004B000521EEDD1181B70BD032A40F2308010F09F
:1004C000030C00F0158011F8013BBCF1020F6244EF
:1004D00098BF11F801CB00F8013B38BF11F8013B80
:1004E000A2F1040298BF00F801CB38BF00F8013B2D
:1004F00011F0030300F06780083AC0F0088051F85B
:10050000043B083A51F804CBA0E80810F5E7121DA7
:100510005CBF51F8043B40F8043BAFF30080D207C6
:1005200024BF11F8013B11F801CB48BF11F8012B92
:1005300024BF00F8013B00F801CB48BF00F8012BB5
:100540007047431A28BF9A427FF6B6AF032A104479
:10055000114440F2268010F0030F1EBF11F8013D38
:10056000521E00F8013D10F0030F7FF4F6AF11F0BA
:10057000030300F01C84083AC0F00B8051F8043DDE
:10058000083A51F804CD40F8043D40F804CDFFF797
:10059000F3BF121D5CBF51F8043D40F8043DAFF3BA
:1005A0000080D20724BF11F8013D11F801CD48BFEA
:1005B00011F8012C24BF00F8013D00F801CD48BF1F
:1005C00000F8012C704710B5203AC0F00B80B1E85C
:1005D0001850203AA0E81850B1E81850A0E8185078
:1005E000BFF4F5AF5FEA027C24BFB1E81850A0E881
:1005F000185044BF18C918C0BDE810405FEA827C9B
:1006000024BF51F8043B40F8043B08BF7047D207B1
:1006100028BF31F8023B48BF11F8012B28BF20F852
:10062000023B48BF00F8012B704702F0FF0343EA8A
:10063000032242EA024200F0E6BB4FF0000200B59E
:10064000134694469646203922BFA0E80C50A0E8F5
:100650000C50B1F12001BFF4F7AF090728BFA0E8A3
:100660000C5048BF0CC05DF804EB890028BF40F86F
:10067000042B08BF704748BF20F8022B11F0804FB1
:1006800018BF00F8012B704710B5044610F0030F97
:1006900008BF11F0030F40F015804FF0013E121F0C
:1006A000C0F20E8051F8043BA3EB0E0C2CEA030CB5
:1006B0001CEACE1C08BF40F8043BF0D0A1F10401B5
:1006C00002F10402521E08DB11F8013B002B00F876
:1006D000013BF7D1114600F094FB204610BD00000D
:1006E0004FF0013C50F8042B51F8043B9A4221D1C1
:1006F000A2EB0C03934313EACC1317D150F8042B4D
:1007000051F8043B9A4215D1A2EB0C03934313EA30
:10071000CC130BD150F8042B51F8043B9A4209D169
:10072000A2EB0C03934313EACC13DBD04FF0000091
:10073000704700BFD01A01BAB1FA81F101F0180177
:1007400022FA01F0CB40C1F12001DBB2C0B2C01AE5
:100750002CFA01F3D11A914311EAC311E6D1704783
:100760007047704770470000004870470C2A00200F
:1007700070B5044685690068C10601D5302600E0E1
:100780002026C00707D070BDD4E90121304690472C
:10079000206A401C20626D1EF6D570BD70B50446FF
:1007A00085690078C00707D170BDD4E901212020F8
:1007B0009047206A401C20626D1EF6D570BD096806
:1007C0004A0501D540B27047C905FCD500B2704753
:1007D00009684A0501D5C0B27047C905FCD580B289
:1007E000704770B50C460546012A05D0287880066A
:1007F00000D5EA69002302E0012305E05B1C934277
:1008000002D2E05C0028F9D1A869E618C01AA861F4
:10081000286A184428622846FFF7AAFF04E0D5E9B1
:10082000012114F8010B9047B442F8D32846FFF792
:10083000B5FF70BD2DE9F04106460024106875290A
:10084000314616A510D0FFF7BAFF002802DA404261
:1008500013A507E031688A0701D512A502E0490710
:1008600004D511A5012401E0FFF7B2FF00210A22FF
:1008700006F1240709E0B0FBF2FCB0FBF2F302FB47
:100880001C00303078541846491C0028F3D1234608
:100890002A463046BDE8F04100F027BB00000000CA
:1008A0002D0000002B0000002000000011680268ED
:1008B000006A530501D508700AE0D30501D5088008
:1008C00006E0130603D5C217C1E9000200E0086084
:1008D0000120704701694A1C02610878704700B521
:1008E0008FB0CDE901310021059105497944CDE969
:1008F00003101146684600F029F90FB000BD000052
:10090000E5FFFFFF0A6802F8010B0A60704700006C
:100910002DE9FF5F15468A460446DFF8AC80F844AF
:100920000027D8E900103E46CDE9001010E03AF863
:1009300016106A4602A800F03AFF411C07D0217841
:10094000890603D5E269391891420DD80744761C0F
:100950002078800602D5E069B84205DDAE42E6DBCC
:100960003AF816000028E2D1A069C01BA061204619
:10097000FFF7FEFED8E90010CDE90010002017E0D7
:100980003AF818106A4602A800F011FFB0F1FF3FD4
:1009900081460BD000250DF1080B05E0D4E90121BB
:1009A0001BF8050090476D1C4D45F7D308F1010079
:1009B000B0428046E4DB206A384420622046FFF7DC
:1009C000EDFEBDE8FF9F0000D66900002DE9F04173
:1009D0008046D21D22F007020025D2E90002F52947
:1009E00015A614D0011E72F1000106DA0023D0EB27
:1009F000030063EB020211A608E0D8F800108B0791
:100A000001D50FA602E0490701D50EA60125114622
:100A1000002408F1240704E000F022FA30323A55AD
:100A2000641C50EA0102F7D12B463246214640466B
:100A3000BDE8F04100F059BA000000002D000000B0
:100A40002B0000002000000030B4002100F124043D
:100A500008E002F00705D208303542EA4372DB08AD
:100A60006554491C52EA0305F3D10468002310A21F
:100A7000250707D5A40600D421B1C46901230DA21E
:100A8000641EC46130BC00F030BA10B50446214683
:100A90001068FFF79DFE02462046BDE81040002387
:100AA000D2E7D21D22F00701D1E90023CCE70000F4
:100AB0000000000030000000F0B40D460188090578
:100AC00002D5214C7C4402E01F4C7C440E340021B2
:100AD00000F1240608E002F00F071209E75D42EA80
:100AE00003721B097754491C52EA0307F3D10278B9
:100AF0000023120704D5702D06D009B1022311344A
:100B00002246F0BC00F0F1B901231034F8E770B5CB
:100B100004460D4621461068FFF75AFE0246294654
:100B20002046BDE870400023C6E7D21D22F007032F
:100B3000D3E90023C0E70368126843F02003036091
:100B40000823C3610023B7E7386800002DE9F05F90
:100B5000894604464FF0000ADFF874B1FB44C0F840
:100B600020A02046E1688847002874D0252806D0B8
:100B7000D4E901219047206A401C2062F1E7002659
:100B80005F462046E16888472028054607DB312D6F
:100B900005D2781910F8200C08B10643F1E7B00728
:100BA00001D526F00406C4F81CA00027C4F818A03C
:100BB0002A2D09D0284603F008FE38B304EB870835
:100BC000303DC8F8185019E059F8041B204604EBD2
:100BD00087029161E1688847012F054618D1E069D5
:100BE000002820DA26F020061DE0D8F8180000EBD7
:100BF000800005EB40003038C8F818002046E16856
:100C00008847054603F0E1FD0028EED1012F0AD008
:100C10002E2D08D12046E16888477F1C0546022F0B
:100C200046F02006C4DBA069002803DA404246F003
:100C30000106A061F00701D026F010066C2D0BD044
:100C4000682D09D04C2D39D06A2D35D0742D35D072
:100C50007A2D33D016E038E0E1682F4620468847E9
:100C6000B842054609D16C2F26D04FF48060E16868
:100C7000064320468847054604E06C2F1AD04FF4FF
:100C8000807006430DB3A5F14100192802D8203524
:100C900046F400664A462946204626604E46FFF73F
:100CA00081FA80B101280BD0F61D26F0070000F173
:100CB000080956E74020E4E78020D8E70020D6E77F
:100CC00006F104094DE7284652E7206ABDE8F09F87
:100CD000C86700002DE9F04791460F46804604465C
:100CE000002614F8015B2DB100F0B2F80068405DF9
:100CF000C007F6D12B2D02D02D2D18D0641E4A46E8
:100D00003946204600F004FD27B13968A14201D1DF
:100D1000C7F800804FF0020471050BD5404200284F
:100D200003DDFFF721FD0460A007BDE8F08746F46E
:100D30008066E4E70028F8DAFFF716FD04606FF03C
:100D40000040F2E72DE9F04115460E46040002D1BD
:100D50002C6804B90BA4204600F059FD0444207807
:100D600070B127463146384600F041FD04442078F2
:100D700010B1002004F8010B38462C60BDE8F0816A
:100D80000027F9E700000000431A28BF9A427FF6C7
:100D90001AAC104410F0030F11441EBF11F8013DAE
:100DA000521E00F8013D10F0030F7FF4F6AF103A29
:100DB000C0F00A8010B531E91850103A20E91850F7
:100DC000BFF4F9AFBDE81040530724BF31E9081064
:100DD00020E9081044BF51F8043D40F8043D12F0EA
:100DE000030F08BF7047D20728BF31F8023D48BF44
:100DF00011F8012C28BF20F8023D48BF00F8012C53
:100E000070474FF000020429C0F0128010F0030C6C
:100E10003FF415ACCCF1040CBCF1020F18BF00F884
:100E2000012BA8BF20F8022BA1EB0C01FFF707BC98
:100E30005FEAC17C24BF00F8012B00F8012B48BFFA
:100E400000F8012B70470000004870470C2A002072
:100E500010B500F011FD001D10BD00BF556300006E
:100E600030B5B0F10A024FEA900E71F100034EEA7C
:100E7000817EB0EB0E0061EB91014FEA101E4EEA4D
:100E8000017E10EB0E0041EB11114FEA102E4EEADD
:100E9000016E10EB0E0041EB11214FEA104E4EEAAD
:100EA000014E10EB0E0041EB1141401841F10001E1
:100EB0004FEAD00040EA41704FEAD10110EB8005C3
:100EC0004FEA810444EA907444EB01046D1944EB49
:100ED0000404521BA3414FF0000348BF0A3200D55F
:100EE00030BD401C41F1000130BD2DE9F0470D46F9
:100EF00099469246044600F124080168880604D504
:100F0000E06921F01001216000E00120A84201DD2C
:100F1000471B00E00027A1697A1902EB0900081AB3
:100F2000A0612078C00602D42046FFF721FC0026ED
:100F300008E0D4E901211AF806009047206A401C15
:100F4000761C20624E45F4DB2078C0060AD5204688
:100F5000FFF70EFC06E0D4E9012130209047206A1B
:100F6000401C2062381EA7F10107F4DC07E0D4E939
:100F7000012118F805009047206A401C2062281EB5
:100F8000A5F10105F3DC2046FFF708FC20780006F8
:100F900002D50220BDE8F0870120FBE770472DE96C
:100FA000FF4F0C461E464FF0FF378BB0D2E90001D1
:100FB000DDF860800A908A46C1F30A5505B93D46BE
:100FC000002108464FF00000BAF1000F00F4400085
:100FD00005DA00EB80004FF4400101EA50004FEACF
:100FE0009059B9F1010F00DDB9460A9850EA4A005C
:100FF0000ED044F61050A5F2FF3545432F14B8F13A
:10100000000F1ED07542291E1EDDC9F100021CE032
:10101000B8F1010F4FF0000001D0302103E0F2439E
:1010200005E02154401CB042FBDB30460022002189
:1010300021540B99C1F80880C1E900200FB0BDE828
:10104000F08FBD1B6D1CDEE74A4600DA694206A838
:1010500000F064FC06AB93E8070003AB83E80700ED
:1010600050460A9900F0DCFC8DE80700A0F500501E
:101070001F3800900398002D0ADD42F21F014A46F6
:101080000844002303A90390684600F045FF09E0E7
:10109000A0F500504A461F38002303A90390684674
:1010A00000F04FFF8DE807000004000C03D04FF064
:1010B000FF30410800E01046B8F1000F03D00022D5
:1010C000009215461EE0751E05D4FFF7C9FE3032AA
:1010D00062556D1EF9D5B3460122084302D00022A5
:1010E0007F1C04E02078302801D100227F1E002AD6
:1010F000099784D01DE0112D07DAFFF7B1FE3032D9
:1011000062556D1C50EA0102F5D1084302D00098E7
:10111000C8B10EE00021681E05E0235C625C6354E8
:101120002254401E491C8142F7DBAB46A81B401EDF
:101130000990002004F80B000B98099AC0F8088069
:10114000C0E9002B7AE711264FF0000857E72DE998
:10115000F04F88460446D21D22F0070191B0D1E934
:101160000001CDE90A0103F00CFB02460B98C00F09
:1011700001D02D2007E02068810701D52B2002E057
:10118000202101EAC000032A099001D0072A05DBCB
:1011900003464146204600F073FB0BE120788006B1
:1011A00001D5E06900E00620B8F1650F814606D060
:1011B000B8F1660F18D0B8F1670F70D131E0002098
:1011C000B9F1110F009001DB112301E009F10103D6
:1011D0000AAA01A90CA8FFF7E2FEDDE90C700026BF
:1011E00009F10105834647E001204B4600904FF08E
:1011F00000470AAA01A90CA8FFF7D1FEDDE90DB04E
:101200000C995D46002610B909F101000D18B9EBE3
:10121000050003D4C0F1FF3609F10105A5EB090073
:101220002BE0B9F1010F01DA4FF001090020B9F10B
:10123000110F0090484601DD112300E003460AAA81
:1012400001A90CA8FFF7ABFEDDE90C704D460026A6
:101250008346207800070AD4AB4500DA5D4601A832
:10126000012D04DD411911F8011C302907D04F452B
:1012700002DA17F1040F04DA012082460FE06D1E36
:10128000EEE7002F02DCED1B3E4403E0781CA84291
:1012900000DD7D1CB81B00F1010A4FF000472078EB
:1012A000000703D4AA4501DB4FF0FF3A0021B7F154
:1012B000004F0DF143088DF8431024D002202B235A
:1012C000002F01DA7F422D230A21021EA0F1010026
:1012D00000DC5FB197FBF1FC97FBF1F201FB1C7C9A
:1012E00017460CF1300C08F801CDEEE7A8F101002B
:1012F00003702188090501D5452100E06521A0F191
:10130000010800F8011C09980FA9A1EB0807FF1DAF
:1013100000B10120411901EBEA70A1693844081AB3
:10132000401EA0612078C00602D42046FFF720FAB4
:10133000099828B1D4E901219047206A401C206215
:101340002078C00622D52046FFF712FA1EE0002EB4
:1013500004DBB34502DD01A8805D00E03020D4E964
:1013600001219047206A401C2062761CAAF10100EE
:101370005FEA000A0AD100F07FFAC0680168405CA9
:10138000D4E901219047206A401C2062281EA5F163
:101390000105DCDC07E0D4E9012118F8010B9047D6
:1013A000206A401C2062381EA7F10107F3DC2046AA
:1013B000FFF7F4F9032011B041E600002DE9F04FEA
:1013C00004460D46D21D22F0070089B0D0E90097EF
:1013D0004846394603F0D5F90246F80F01D02D23CF
:1013E00007E02068810701D52B2302E0202101EAD4
:1013F000C0038DF820300BB1012000E00020032A4B
:10140000824601D0072A04DB2946204600F038FA3C
:101410003FE12078800601D40D2500E0E569C7F39F
:101420000A560D2D49DA00214FEA175B08464FF0A6
:101430000000002F00F4400007DA00EB80004FF4BA
:10144000400100EBD07001EA60008115012901DD47
:101450004FF0FF3100224FEA850CBCF1180F06D384
:101460001346ACF118004FF08052C24003E04FF435
:10147000801323FA0CF30CF10C0CBCF1200F04D3F5
:10148000ACF1200C09FA0CF001E007FA0CF000298D
:101490004FF0004801DD18B90FE00ED140450CD3E4
:1014A00019EB02095F4121B9404502D19F4329EA66
:1014B0000209BBEB175F00D0761C2088000502D51F
:1014C0007B48784402E07A487844193808AA3023E7
:1014D00002F80A30037C0AF10101002E0AF1020A27
:1014E00053546A4602DC4FF0300101E04FF0310105
:1014F0004FF001088DF8001002D0A6F2FF3603E08D
:1015000059EA470100D06B4E002D02DC2178090713
:1015100004D54FF002082E218DF80110C446002199
:101520000BE0C7F303433F01C35C491C6D1E02F887
:101530000830052908F1010801DA002DF1DC00214D
:101540000CE000EB1973491C1B786D1E082902F88A
:1015500008304FEA091908F1010801DA002DF0DC22
:1015600021688B0602D516E0A8F10108E04505DDEB
:1015700002EB080313F8013C302BF5D0B8F1000F53
:1015800009DD02EB080313F8013C2E2B03D10907F8
:1015900001D4A8F10108002D05DD3E2102F8081054
:1015A0006D1E08F10108407C002E02F8080008F1C9
:1015B000010804DA2D20764202F8080002E02B2010
:1015C00002F808000A214FF47A70864208F10108F7
:1015D0000BDB96FBF0F3303302F8083096FBF0F3A8
:1015E00008F1010800FB136601E0642E0CDB6420A7
:1015F00096FBF0F3303302F8083096FBF0F308F175
:10160000010800FB136601E00A2E06DB96FBF1F0F1
:10161000303002F8080008F1010896FBF1F001FBF8
:101620001060303002F80800A16908F1010808EBE9
:10163000050202EB0A00081AA0612078C00602D455
:101640002046FFF795F8216A08AE01EB0A002062F8
:1016500004E0D4E9012116F8010B9047BAF1010A20
:10166000F7D22078C00602D52046FFF781F86E46F3
:1016700009E016F8010B3E280FD0D4E9012190476C
:10168000206A401C2062B8F10108F2D22046FFF720
:1016900085F809B00320BDE8F08F206A2844206255
:1016A00003E0D4E90121302090476D1EEBD3F8E729
:1016B000865E000002FCFFFF10B5436913B1AFF373
:1016C000008001E0FFF78DF8012010BD127800F1D5
:1016D00024010A7000224A700122EDE711684FF0E0
:1016E000FF32E9E710B5436913B1AFF3008001E0C1
:1016F000FFF70EF9012010BD128800F12401828449
:101700000022C2840122EDE711684FF0FF32E9E7C1
:101710002DE9F05F824615468B4600270AF1010449
:10172000B9460078302801D09DB113E014F8010BC0
:101730000127782803D0582801D045B10AE00DB11F
:10174000102D07D1002714F8010B102502E0082501
:1017500000E00A250026B0460EE005FB080005FB68
:1017600006F101271FFA80F801EB1046B6F5803F1D
:1017700000D3B94614F8010B294600F0C1F800283F
:10178000EBDABBF1000F05D00FB1641E00E0544648
:10179000CBF80040B9F1000F06D0FEF7E5FF0221BB
:1017A0000160C81EBDE8F09F48EA0640FAE770B540
:1017B00016460C460546FFF74BFB036893F80101FC
:1017C000012806D0FF2C0FD8185D68B101202C70BD
:1017D00070BDD3F807013246214603F207130344D4
:1017E0002846BDE8704018474FF0FF3070BD30B557
:1017F00003461D781DB10A4603E0AC4201D1181A18
:1018000030BD12F8014B002CF7D15B1CF1E730B56D
:1018100003461D783DB10A4612F8014B1CB1AC429B
:10182000FAD15B1CF5E7181A30BD70477546FFF713
:101830000BFBAE4605006946534620F0070085467F
:1018400018B020B5FEF772FDBDE820404FF000064D
:101850004FF000074FF000084FF0000B21F0070198
:10186000AC46ACE8C009ACE8C009ACE8C009ACE8DB
:10187000C0098D4670470000004870472C2A0020A0
:101880002DE9F0411F46044603260168072A01F4AA
:10189000006004DB08B116A505E016A503E008B159
:1018A00015A500E015A521F010002060A069C01E5C
:1018B000A0610FB1401EA0612046FEF759FF4FB155
:1018C000D4E9012138469047206A401C2062C01CA0
:1018D000206206E0206AFAE7D4E9012115F8010B3D
:1018E0009047761EF8D22046FEF758FFBDE8F081FB
:1018F0004E414E006E616E00494E4600696E6600B4
:101900003A2800D2303820F02002412A01D3A2F137
:101910003700884201D34FF0FF3070472DE9F04780
:10192000814616468AB0354878440DC88DE80D00CA
:1019300032487844801C03AC0DC884E80D0041F6A1
:101940009B300844372190FBF1F290FBF1F5A5F1B3
:10195000800501FB12041B3C02D56442012000E01B
:101960000020DFF898A080460027FA44AAF1BE0ABA
:101970000EE0E0070AD03246684607EB4701012334
:101980000AEB810100F0DDFA8DE8070064107F1C8E
:10199000002CEED1194F7F44AE3F19E0E80715D077
:1019A00007EB04100DF1180A90E80E008AE80E000B
:1019B000C068F04201D1981908903246012306A967
:1019C00003A800F0BEFA03AB83E807006D10641CA7
:1019D000002DE3D14FF0010332466946B8F1000F04
:1019E00003A802D000F098FA01E000F0AAFAC9E9D1
:1019F0000001C9F808200AB0BDE8F087B05A00001D
:101A000010B50446AFF300802046BDE81040FEF755
:101A10002CBC000001491820ABBEFEE726000200E6
:101A20005FEA400C08BF91F0000F4FEA8C234FEAA9
:101A3000C12243EA51514FEA1C5018BF00F5F04053
:101A40004FEA300018BF41F000415FEA6C5C00F0E3
:101A50002980BCF1FF3F08BF40F080407047130C65
:101A600006BF12044FF0100C4FF0000C130E04BF11
:101A700012020CF1080C130F04BF12010CF1040C3C
:101A8000930F04BF92000CF1020CD30F04BF52005D
:101A90000CF1010C11464FF00002A0F11F00A0EB69
:101AA0000C00704711F0004F08BF704731F0004143
:101AB0003FF4D5AF0B0C06BF09044FF0100C4FF0EC
:101AC000000C0B0E04BF09020CF1080C0B0F04BF35
:101AD00009010CF1040C8B0F04BF89000CF1020CFE
:101AE000CB0F04BF49000CF1010CCCF12003A0EB9B
:101AF0000C0022FA03F302FA0CF241EA030100F1AE
:101B00000100704720F07F4C80EA030023F07F47FC
:101B1000ACEB070303F57C5300F0004003F1FF0337
:101B20002DE980494FEA154B09B44FEA144325EAE1
:101B30000B4E24EA03480FF2042606EB132749084C
:101B40003E785FEA320203FB0667C7F5000707FB32
:101B500006F64FEA54374FEAD64606F1020607FB6F
:101B6000066CCCF1005C4FEA1C472CEA074C07FBE3
:101B700006F40CFB06F504EB15464FEA961634BF47
:101B800000204FF000404FEAD13706FB07FC4FEA38
:101B90001C4C0CFB0BF7D21B03FB0CF761EB070192
:101BA0000CFB0EF7B0EB074072EB17420CFB08F78B
:101BB00034BFA2EB0742B2EB074261EB17414FEA99
:101BC0000C444FEA910706FB07FC4FEA1C4C0CFB48
:101BD0000BF7B0EBC74072EB573203FB0CF734BF87
:101BE000A2EBC742B2EBC74261EB57310CFB0EF7D9
:101BF000B0EBC70072EB57720CFB08F734BFA2EBD7
:101C0000C702B2EBC70261EB5771039F4FEA8161D4
:101C100041EA921104EBCC044FEAD1374FEA8262D9
:101C200006FB07FC42EA90124FEA80604FEA1C4C28
:101C30000CFB0BF7D21B03FB0CF761EB07010CFB52
:101C40000EF7B0EB074072EB17420CFB08F734BFFE
:101C5000A2EB0742B2EB074261EB17414FEA8C550A
:101C60004FEA910704EB9C2406FB07FC4FEA1C4C4F
:101C70000CFB0BF7B0EBC74072EB573203FB0CF7D2
:101C800034BFA2EBC742B2EBC74261EB57310CFB4A
:101C90000EF7B0EBC70072EB57720CFB08F734BFBE
:101CA000A2EBC702B2EBC70261EB577115EB4C25F3
:101CB0004FEA816141EA92114FEA82624FEAD137DD
:101CC00042EA901206FB07FC44F100044FEA8060F0
:101CD0004FEA1C4C0CFB0BF7D21B03FB0CF761EB20
:101CE00007010CFB0EF7B0EB074072EB17420CFB41
:101CF00008F734BFA2EB0742B2EB074261EB174192
:101D000015EB1C154FEA813141EA92414FEA8232CC
:101D100042EA90424FEA80304FEA0C7644F10004E8
:101D200048EA03434EEA0B484FF0000EB2EB080CB2
:101D300071EB030724BF624639464EEB0E0E4FF09F
:101D4000000B0018524149414BEB0B0BB2EB080C56
:101D500071EB03077BF1000B24BF624639464EEB63
:101D60000E0E4FF0000B0018524149414BEB0B0B8C
:101D7000B2EB080C71EB03077BF1000B24BF62464A
:101D800039464EEB0E0E51EA020718BF46F0010627
:101D900016EB0E7655F1000254F1000103D5BDE8B3
:101DA0008901BDE80088BDE88901BDE80048B61991
:101DB000524141EB0101A3F10103704780807F7E16
:101DC0007D7C7B7A797877767675747372717170B1
:101DD0006F6E6E6D6C6C6B6A6A6968686766666563
:101DE0006464636362616160605F5F5E5E5D5D5CF1
:101DF0005C5B5B5A5A595958585757565655555562
:101E00005454535352525251515050504F4F4F4EC1
:101E10004E4D4D4D4C4C4C4B4B4B4A4A4A4949490F
:101E20004848484747474746464645454544444451
:101E3000444343434342424242414141002B9C467A
:101E400030D477002BD01CB54FEA370703B44FF0DE
:101E500010004FF01001BAF1000F06D0BCF1000FD6
:101E6000DCBF40F0080040F008014FF000000FBC5C
:101E7000BDE810400BF1010BBBF1010F08BF5FEA99
:101E8000170722BF12F1010211F101014FF00041C9
:101E900043F1000300F0004043EA00007047F9D32B
:101EA0005708D0E746EA064613F1400F4FEA1646B8
:101EB0001FDD13F1200FDFBF16430A460021203338
:101EC0005B42BED0C3F1200746EA064602FA07F796
:101ED0004FEA164646EA0706C3F1200722FA03F244
:101EE00001FA07F721FA03F14FF0000342EA070273
:101EF000A7E746EA020646EA06464FEA164646EADB
:101F00000106BCBF46EA0646360C4FF000034FF010
:101F100000024FF0000194E72DE9804C9A46934669
:101F200070B491E8380007C831EA400C48BF34EA81
:101F3000430C03D5FFF7E6FDFFF780FFF0BCBDE8DB
:101F4000008C2DE9804C9A46934670B491E8380095
:101F500007C810F0804F08BF13F0804F03D100F086
:101F600005F8FFF76BFFF0BCBDE8008C20F07F4761
:101F700080EA030023F07F4C07EB0C03A3F57C53AE
:101F800000F00040A3F1FE0392F0000F00F0B380D8
:101F900095F0000F00F077802DE901494FEA1140DC
:101FA0004FEA144621EA004800FB06FC24EA0647F3
:101FB00008FB06F607FB08F800FB07F718EB0648D6
:101FC0004CEB164C4FEA124B18EB07484FEA1546FC
:101FD0004CEB174022EA0B4E0BFB06FC25EA0647AA
:101FE0000EFB06F607FB0EFE0BFB07F71EEB064E7D
:101FF0004CEB164C4FF000061EEB074E4CEB174B0C
:1020000018EB0B0840F1000018EB0E0B58EB000822
:1020100040F100008F1A4FF000013CBFC943661B1E
:1020200014BFB5EB040C00213CBFC943F61B4FEABB
:1020300017444EEA8E0E27EA04454FEA1C4704FB7C
:1020400007622CEA074C05FB07F70CFB05F604FBBF
:102050000CFC16EB074642EB174216EB0C4642EB24
:102060001C421BEB060658EB0202414146EA9E0663
:1020700001D5BDE80189B619524141EB0101A3F137
:102080000103BDE801894FEA14454FEA114724EAEC
:10209000054621EA074C05FB07F406FB07F70CFB96
:1020A00006F105FB0CFC11EB074144EB17444FEA2A
:1020B000124711EB0C4144EB1C4422EA074C05FB90
:1020C00007F206FB07F70CFB06F605FB0CFC16EB0C
:1020D000074642EB174216EB0C4642EB1C456A18CA
:1020E00054F1000148BF7047B619524141EB01015C
:1020F000A3F10103704795F0000F37D04FEA11426A
:102100004FEA144721EA024624EA074C02FB07F192
:1021100006FB07F70CFB06F402FB0CFC14EB074470
:1021200041EB17414FEA154714EB0C4441EB1C41BE
:1021300025EA074C02FB07F506FB07F70CFB06F642
:1021400002FB0CFC16EB074645EB174516EB0C465D
:1021500045EB1C42121951F1000148BF7047B619F6
:10216000524141EB0101A3F1010370474FEA1445CD
:102170004FEA114724EA054621EA074C05FB07F11F
:1021800006FB07F70CFB06F24FF0000605FB0CFC04
:1021900012EB074241EB174112EB0C4251EB1C4191
:1021A00048BF7047921841EB0101A3F1010370474A
:1021B000FEE70000014800F00DB9000078020020A1
:1021C000014800F007B90000BC02002010B5044827
:1021D00003F0E0FEBDE81040024800F0FBB800004C
:1021E000202800203402002010B5044803F0CEFE61
:1021F000BDE81040024800F0EDB8000020280020A3
:10220000F001002030B590F840500124AC40C56B7F
:102210006C60046863604368102B036803D09960A6
:102220000068C26030BD9A600068C16030BD704710
:1022300070B5084C0D460646606801F0E8FA2128A2
:10224000FAD04FF47A732A463146606801F01EFDD9
:10225000012070BDB000002072B6FEE710B590F806
:1022600021100022022905D00421816380F820205A
:10227000012010BD01680B6823F00E030B6001689C
:102280000B6823F001030B6090F84030C46B012110
:1022900001FA03F3636080F8211080F820201046D3
:1022A00010BD00002DE9F05F90F8211000240229F4
:1022B00003D004218163012485E001680A6822F0CB
:1022C0000E020A6001680A6822F001020A603F4EAD
:1022D0003E4FB215DFF8F4C0DFF8F090DFF8ECA065
:1022E000DFF8E8B0DFF8E4E00168783F1301150299
:1022F000ACF1640CA9F15009AAF13C0AABF1280B2E
:10230000AEF1140E4FF48018B14227D9B9420ED065
:10231000614512D049451DD0514518D0594518D0B6
:10232000714501D1424615E0294EB14201D1012249
:1023300010E0274E1436B14201D110220AE0244E9B
:102340002836B14206D0224A3C32914201D11A4687
:1023500000E02A461E49091F0A602BE0B94213D04B
:10236000614517D0494522D051451DD059451DD052
:10237000714501D142461AE0B14202D14FF080725C
:1023800015E0134EB14201D1012210E0104E143677
:10239000B14201D110220AE00D4E2836B14206D0DA
:1023A0000B4A3C32914201D11A4600E02A460749C5
:1023B00080394A60012180F82110002180F8201026
:1023C000416B01B188472046BDE8F09F8000024084
:1023D000080402402DE9F05FC16B0A6801680B68D0
:1023E000046C4FF0040808FA04F8844D844E854FBD
:1023F000DFF814C2DFF81492DFF814A2DFF814B289
:10240000DFF814E218EA020F65D05FEA437862D57C
:102410000A68920603D40A6822F004020A60DFF810
:10242000F0814FF48062016808F11408130114026E
:10243000414524D9A9420DD0B1420FD0B9421AD09A
:10244000614515D0494515D0514501D1120312E01F
:10245000594501D104220EE0714501D140220AE024
:102460006D4D1435A94206D06B4A2832914201D1F4
:102470001A4600E022466749091F0A6029E0A9427E
:1024800013D0B14215D0B94220D061451BD0494587
:102490001BD0514502D14FF4800217E0414502D1D3
:1024A0004FF0806212E0594501D104220EE07145DF
:1024B00001D140220AE0584D1435A94206D0564AAF
:1024C0002832914201D11A4600E022464B49083990
:1024D0004A60C16A71E04FF0020808FA04F818EA8D
:1024E000020F70D05FEA83786DD50A68920606D431
:1024F0000A6822F00A020A60012180F82110DFF840
:1025000010814FF40072016808F1140813011402DD
:10251000414524D9A9420DD0B1420FD0B9421AD0B9
:10252000614515D0494515D0514501D1120312E03E
:10253000594501D102220EE0714501D120220AE065
:10254000354D1435A94206D0334A2832914201D183
:102550001A4600E022462F49091F0A6029E0A942D5
:1025600013D0B14215D0B94220D061451BD04945A6
:102570001BD0514502D14FF4001217E0414502D162
:102580004FF0007212E0594501D102220EE0714570
:1025900001D120220AE0204D1435A94206D01E4A5E
:1025A0002832914201D11A4600E0224613490839E7
:1025B0004A60002180F82010816A00291CD0BDE803
:1025C000F05F0847FFE70825A540154214D01A0719
:1025D00012D50A6822F00E020A6090F84020C36B00
:1025E000012101FA02F25A60816380F82110002172
:1025F00080F82010016BE0E7BDE8F09F0800024082
:102600001C000240300002404400024058000240DA
:102610006C000240080402401C04024030B560B166
:102620001A4B026814219A4209D2194B1344B3FB86
:10263000F1F18900016417490AE0012030BD134B14
:102640005B421344B3FBF1F1890001640F4908397F
:10265000C163022180F82110136843F6F0718B43A7
:10266000F0E901142143D0E902452C4321430469D8
:1026700021434469214384692143194311600021A6
:102680004163012242770177084630BD08040240C9
:10269000F8FFFDBF0000024070B5044690F820002E
:1026A000002501280CD0012084F8200094F8216036
:1026B0000020012E06D084F820000225284670BD97
:1026C000022070BD022684F82160A063206806689D
:1026D00026F0010606602046FFF794FDE06A002818
:1026E0002068016802D041F00E0106E021F00401EB
:1026F00001602068016841F00A01016020680168FA
:1027000041F001010160D9E72DE9F84FDFF8C891E8
:102710000024A9F1040B23460F2709F1040AABF1A9
:10272000040ED1E00125A54006EA0502AA4276D1B1
:10273000DFF8A8C14E68A6EB0C0866452BD00DDC6F
:10274000032E34D005DC36B3012E19D0022E2FD142
:102750001BE0112E16D0122E2AD119E0B8F5881FD1
:1027600019D006DCB8F5803F15D0B8F5801F1FD111
:1027700011E0B8F5001F0ED0B8F5041F18D10AE01B
:10278000CB6815E0CB681B1D12E0CB6808330FE067
:10279000CB680C330CE08B682BB1012B4FF0080396
:1027A00003D0456104E0042302E0056100E000235A
:1027B000FF2A01D8064601E000F104064FEA84052D
:1027C00001D9A5F12005D6F8008007FA05FC28EA12
:1027D0000C0803FA05F548EA0508C6F800804D68BC
:1027E000ED0070D53E4DAE6946F00106AE61AD69B3
:1027F00024F0030605F0010500953A4D06EB050CA3
:10280000DCF80850A607360F07FA06F825EA08058F
:10281000DFF8D480404503D14FF0000825E052E0B6
:10282000DFF8C880404502D14FF001081DE0DFF815
:10283000C080404502D14FF0020816E0DFF8B480B6
:10284000404502D14FF003080FE0DFF8AC8040456F
:1028500002D14FF0040808E0DFF8A080404502D123
:102860004FF0050801E04FF0060808FA06F848EABC
:102870000508CCF808804D68D9F80060ED024D4697
:1028800001D5164300E096432E604D68DAF80060EB
:10289000AD02554601D5164300E096432E604D68C3
:1028A000DBF80060AD035D4601D5164300E09643BA
:1028B0002E604D68DEF80060ED03754601D51643C5
:1028C00000E096432E60641C0A681646E2407FF4DE
:1028D00029AFBDE8F88F0000080401400000111086
:1028E000001002400000014000080140000C0140BF
:1028F000001001400014014000180140001C01407C
:102900000AB1016170470904FBE7000001488068D3
:1029100070470000040000200248816802781144DA
:102920008160704704000020074810B5016841F03D
:1029300010010160032000F0A7F80F2000F006F856
:1029400000F050F8002010BD0020024030B50546D0
:102950001F4887B0C16941F00401C161C06906A97F
:1029600000F00400009001A800F036F90498B0B11E
:1029700000F052F940001749174AB0FBF1F117482F
:10298000491E0260416040F2E7320021C0E90321A4
:102990008160816100F056FB040003D015E000F077
:1029A0003BF9E8E70D4800F08FFB04000DD11E2035
:1029B00000F03CF8102D07D2002229461E2000F01E
:1029C00043F80748056000E0012407B0204630BD09
:1029D0000010024040420F000008004000030020A9
:1029E000080000200F4808B5816941F001018161AC
:1029F000816901F001010091C16941F08051C1611B
:102A0000C069002200F0805000900F21901E00F05D
:102A10001BF80548416821F0E06141F00071416018
:102A200008BD00000010024000000140002809DB42
:102A300000F01F02012191404009800000F1E020D8
:102A4000C0F8001170470000F0B40E4B1B680C4634
:102A5000C3F30223C3F10705042D00D90425191D72
:102A6000072901D2002300E0DB1E012606FA05F14A
:102A7000491E214099409E40761E16403143F0BCCD
:102A800001F093BE0CED00E0064900F00702086873
:102A90004FF6FF03184040EA0220034A1043086043
:102AA000704700000CED00E00000FA052DE9F0474A
:102AB0000F46050061D0434E306800F00700B84271
:102AC00009D2306820F0070038433060306800F0E9
:102AD0000700B84251D128683B4C810712D5400706
:102AE00003D5606840F4E06060602878000703D593
:102AF000606840F4605060606068A96820F0F00091
:102B0000084360602878C00728D06868012810D082
:102B10002168022810D0890700292EDA616821F087
:102B2000030101436160FFF7F1FE804641F28839FD
:102B30000DE021688903EFE78901EDE7FFF7E6FE85
:102B4000A0EB0801494502D90320BDE8F087606881
:102B5000696800F00C00B0EB810FEFD1306800F035
:102B60000700B8420BD9306820F0070038433060C6
:102B7000306800F00700B84201D00120E5E728786E
:102B8000400705D56068E96820F4E06008436060AC
:102B90002878000706D56068296920F4605040EA6B
:102BA000C100606000F058F86168084AC1F3031181
:102BB000515CC8400649086006480068FFF7C6FE39
:102BC0000020C2E7002002400010024046720008C8
:102BD00010000020080000200F2202600C4A5368F9
:102BE00003F003034360536803F0F003836053680A
:102BF00003F4E063C36052684FF4E06303EAD20277
:102C000002610448006800F0070008607047000097
:102C1000001002400020024004480549006849684D
:102C2000044AC1F30221515CC840704710000020E3
:102C300000100240567200080448054900684968BF
:102C4000044AC1F3C221515CC84070471000002003
:102C500000100240567200080E4A51680E4801F0FA
:102C60000C03042B11D0082B0FD10C48C1F3834364
:102C7000C903C05C0AD55168084AC1F34041921E9D
:102C8000515C054A5043B0FBF1F07047044948439A
:102C9000704700000010024000127A0036720008EF
:102CA00000093D002DE9F84F040070D02078C04D98
:102CB000C00749D06868C0F38100012807D0686860
:102CC000C0F38100022809D16868C00306D52868CE
:102CD000800339D560680028E7D035E06068B0F53A
:102CE000803F0BD010B1B0F5A02F11D0286820F490
:102CF00080302860286820F4802002E0286840F4B2
:102D000080302860606890B1FFF700FE06460AE058
:102D1000286840F480202860F0E700BFFFF7F6FD48
:102D2000801B642873D828688003F7D50CE0FFF770
:102D3000EDFD064605E000BFFFF7E8FD801B6428B7
:102D4000F0D828688003F7D420789A4E80074FF097
:102D500001094FF0000839D5686810F00C0F07D052
:102D60006868C0F38100022809D16868C00306D4EE
:102D70002868800714D52069012808D110E020694F
:102D8000B0B1C6F80090FFF7C1FD074605E00AE1C3
:102D9000FFF7BCFDC01B0228C4D828688007F7D500
:102DA0002868616920F0F80040EAC10028600DE061
:102DB000C6F80080FFF7AAFD074604E0FFF7A6FD6E
:102DC000C01B022823D828688007F7D42078000782
:102DD0002CD57948A169D9B1C0F80090FFF796FDCC
:102DE000074604E0FFF792FDC01B02280FD8686A6F
:102DF0008007F7D571484FF4FA510068B0FBF1F045
:102E0000009000BF0098411E0091FAD20EE080E0D1
:102E1000C0F80080FFF77AFD074604E0FFF776FD73
:102E2000C01B022875D8686A8007F7D4207840074D
:102E300060D5E8690027C00008D4E86940F08050F8
:102E4000E861E869012700F0805000905C48016863
:102E5000C90513D40168834641F480710160FFF70E
:102E600055FD824606E000BFFFF750FDA0EB0A00CB
:102E700064284ED8DBF80000C005F5D5E0680128CD
:102E80000AD008B1052813D0286A20F00100286272
:102E9000286A20F0040002E0286A40F0010028625D
:102EA000E06841F2883B98B1FFF730FD82460BE0C5
:102EB000286A40F004002862EEE700BFFFF726FD15
:102EC000A0EB0A0159455AD8286A8007F6D50CE0CC
:102ED000FFF71CFD824605E0FFF718FDA0EB0A0195
:102EE00059454CD8286A8007F6D41FB1E86920F00C
:102EF0008050E861E06988B36968C1F38101022903
:102F000044D00228C6F8608004D0FFF7FFFC0446D6
:102F100038E034E0FFF7FAFC074604E0FFF7F6FC80
:102F2000C01B02282BD828688001F7D4206AB0F58E
:102F3000803F05D16868A16820F4003008436860CC
:102F4000D4E908010843696821F4741108436860F2
:102F5000C6F86090FFF7DAFC044606E025E000BF03
:102F6000FFF7D4FC001B022809D828688001F7D598
:102F70001BE000BFFFF7CAFC001B022802D9032098
:102F8000BDE8F88F28688001F4D40EE00128F7D05E
:102F90006868226A00F48031914204D1616A00F4C9
:102FA0007010884201D00120EAE70020E8E7000025
:102FB0000010024000004242800442421000002003
:102FC000007000407047704770B590F83C20012AAF
:102FD0002CD0012480F83C40022280F83D20036878
:102FE0005A689D6822F070060A6832435A60104B96
:102FF00002689A420ED00F4B9A420BD0B2F1804F2A
:1030000008D00D4B9A4205D00C4B9A4202D00C4B83
:103010009A4204D1496825F080031943916080F8F1
:103020003D40002180F83C10084670BD022070BD74
:10303000002C014000340140000400400008004022
:10304000000C004010B5040003D094F83D0010B10E
:1030500007E0012010BD002084F83C00204600F06D
:103060001FF8022084F83D00211D206800F0E8FFD1
:10307000012084F8460084F83E0084F83F0084F87C
:10308000400084F8410084F8420084F8430084F84A
:10309000440084F8450084F83D00002010BD000085
:1030A00008B500680649884208D10648C16941F060
:1030B0000201C161C06900F00200009008BD00007B
:1030C000000400400010024090F83D10012901D09A
:1030D00001207047022180F83D100168CA6842F063
:1030E0000102CA6000680E4988420ED00D4988422C
:1030F0000BD0B0F1804F08D00B49884205D00B4966
:10310000884202D00A49884204D1816801F007014F
:10311000062903D0016841F00101016000207047D9
:10312000002C014000340140000400400008004031
:10313000000C004070B5044690F83C0000250128C2
:1031400017D0012684F83C60022084F83D002068F6
:10315000826822F0770222F47F4282600868502859
:1031600038D00DDC20284FD005DC90B3102811D1C9
:103170004AE0022070BD302846D040280AD13BE00A
:1031800060282FD070280DD0B0F5805F03D0B0F547
:10319000005F12D0012584F83D60002084F83C00D7
:1031A000284670BDCB68D1E90121206800F09BFF63
:1031B0002068816841F0770109E0CB68D1E90121FD
:1031C000206800F090FF2068816841F480418160B0
:1031D000E1E719E0CA684968206801F059F8502110
:1031E000206806E0CA684968206801F099F8602103
:1031F000206800F082FFCEE7CA684968206801F0C5
:1032000047F840212068F4E7226801461046F0E7BD
:1032100070472DE9F041054690F83C0000260C4629
:10322000012810D0012085F83C0072B1042A1CD07E
:10323000082A2CD00C2A50D00126002085F83C000A
:103240003046BDE8F0810220FBE7D4E90012E368D4
:10325000286801F02FF82868816921F00C0181614C
:1032600028688169A26811430FE0D4E90012E3687D
:10327000286801F067F82868816921F4406181615C
:1032800028688169A26841EA02218161D5E728683E
:10329000D4E9002C277B036A016A21F48071016262
:1032A000C16923F4007321F0030141EA0C0121F00C
:1032B000F00C39074FF400774CEA116107EA02225B
:1032C0001A43C16102622868C16921F00C01C16121
:1032D0002868C169A26811432BE02868D4E900215D
:1032E000E768036AD0F820C02CF4805CC0F820C0E6
:1032F000D0F81CC023F400532CF4407C4CEA01218C
:1033000021F4704C4FF6FF7101EA07314FF400577A
:1033100041EA0C0107EA02321A43C16102622868DD
:10332000C16921F44061C1612868C169A26841EAAC
:103330000221C16181E710B5040003D094F83D007B
:1033400010B107E0012010BD002084F83C002046A9
:1033500000F01EF8022084F83D00211D206800F0D6
:103360006FFE012084F8460084F83E0084F83F0098
:1033700084F8400084F8410084F8420084F8430057
:1033800084F8440084F8450084F83D00002010BD16
:1033900000B585B000210091019102910391006870
:1033A000B0F1804F1ED11048C16941F00101C161E7
:1033B000C16901F001010491816941F00401816159
:1033C0008069694600F004000490022000900748DC
:1033D000FFF79AF9002205211C20FFF735FB1C207E
:1033E000FFF724FB05B000BD0010024000080140BB
:1033F00070B50446006801694FF00005C9438907AC
:1034000015D4C168C943890711D4E91E016101209F
:103410002077206880698007204602D0FFF7F8FEF9
:1034200004E000F0BFF8204600F051F9257720684D
:103430000169C943490717D4C168C943490713D46F
:103440006FF004010161022020772068806910F488
:10345000407F204602D0FFF7DBFE04E000F0A2F838
:10346000204600F034F9257720680169C94309072F
:1034700016D4C168C943090712D46FF0080101616D
:10348000042020772068C0698007204602D0FFF71B
:10349000BFFE04E000F086F8204600F018F925771A
:1034A00020680169C943C90617D4C168C943C90660
:1034B00013D46FF010010161082020772068C069E3
:1034C00010F4407F204602D0FFF7A2FE04E000F097
:1034D00069F8204600F0FBF8257720680169C943A8
:1034E000C90708D1C168C943C90704D1891E016150
:1034F000204600F047F920680169C943090609D44C
:10350000C168C943090605D46FF0800101612046F6
:10351000FFF758FD20680169C943490609D4C1680D
:10352000C943490605D46FF040010161204600F00F
:1035300033F920680169C94389060BD4C168C943BE
:10354000890607D46FF0200101612046BDE8704074
:10355000FFF739BD70BD000000B585B000210091B6
:1035600001910291039100680B49884211D10B48E7
:10357000816941F0080181618069122100F0080031
:1035800004900320CDE90001039069460448FFF749
:10359000BBF805B000BD0000000400400010024070
:1035A000000C0140704770B5044690F83C000026BE
:1035B0000D4601280FD0012084F83C006AB1042A8E
:1035C0001DD0082A2FD00C2A3FD00126002084F8D5
:1035D0003C00304670BD022070BD206800F096FDB2
:1035E0002068816941F0080181612068816921F0CA
:1035F00004018161206881692A69114311E0206812
:1036000000F0B4FD2068816941F4006181612068A7
:10361000816921F480618161206881692A6941EAB8
:1036200002218161D2E7206800F0D6FD2068C169DF
:1036300041F00801C1612068C16921F00401C16144
:103640002068C1692A69114311E0206800F0F8FD83
:103650002068C16941F40061C1612068C16921F439
:103660008061C1612068C1692A6941EA0221C161A2
:10367000ACE710B5040003D094F83D0010B107E0AA
:10368000012010BD002084F83C00204600F01EF808
:10369000022084F83D00211D206800F0D1FC0120AB
:1036A00084F8460084F83E0084F83F0084F8400027
:1036B00084F8410084F8420084F8430084F8440010
:1036C00084F8450084F83D00002010BD7047704725
:1036D00010B50446022249B104290ED0082913D09E
:1036E00094F84100012816D0012010BD94F83E0046
:1036F0000128F9D184F83E200FE094F83F0001281A
:10370000F2D184F83F2008E094F840000128EBD182
:1037100084F8402001E084F841200122206800F074
:10372000D5FC13492068134A884201D0904203D146
:10373000436C43F400434364206888420DD09042B8
:103740000BD0B0F1804F08D00B49884205D00B490F
:10375000884202D00A49884204D1816801F00701F9
:10376000062903D0016841F001010160002010BD6D
:10377000002C0140003401400004004000080040DB
:10378000000C004000680349884201D1FFF7C4B82B
:1037900070470000000800407047704710B50446AD
:1037A0000068406994F84110C0F3C010212911D17C
:1037B00080B12068143050E8001F21F0800140E8FB
:1037C0000012002AF5D1A06B08B1FEF747FD204694
:1037D00000F079FE2068406994F84210C0F3801030
:1037E000222911D180B12068143050E8001F21F047
:1037F000400140E80012002AF5D1E06B08B1FEF765
:103800002DFD204600F038FE002010BD704710F856
:10381000411F407808437047F8B5016804460868BE
:10382000CA684B6910F00F0F4FF0000559D003F034
:10383000010602F49077374365D0C10705D0D10562
:1038400003D5616C41F001016164410705D5D907D9
:1038500003D0616C41F002016164810705D5D9078D
:1038600003D0616C41F004016164010707D502F0E7
:103870002001314303D0616C41F008016164616C47
:1038800000293AD0800604D5900602D5204600F0E3
:1038900028FE20684069616CC0F38010090700D4DD
:1038A00060B3204600F0E8FD20684069400621D55D
:1038B0002068143050E8001F21F0400140E8001259
:1038C000002AF5D1E06BA8B16D494163E06BFEF7CA
:1038D000E9FC002811D0E06B416B01B0BDE8F0407D
:1038E000084783060FD593060DD52046BDE8F8405E
:1038F00000F0F7BD2046FFF789FFF8BD2046FFF72F
:1039000085FF6564F8BD266B2023012E7CD1C60699
:103910007AD5D60678D508684868009048694FF08F
:103920000206400640D5E16B086840680004000CC0
:10393000E8D0A28D8242E5D9E085886920282DD083
:1039400020680C3050E8001F21F4807140E800121C
:10395000002AF5D12068143050E8001F21F0010141
:1039600040E80012002AF5D12068143050E8001F0A
:1039700021F0400140E80012002AF5D184F84230DD
:10398000256320680C3050E8001F21F0100140E84A
:103990000012002AF5D1E06BFEF760FC6663A08D93
:1039A000E18D401A81B22AE0A08DE18D401A81B2EA
:1039B000E08D0028A6D00029A4D022680C3252E85D
:1039C000000F20F4907042E80007002FF5D1206826
:1039D000143050E8002F22F0010240E80027002FA9
:1039E000F5D184F84230256320680C3050E8002F70
:1039F00022F0100240E80023002BF5D16663204638
:103A0000FFF7CBFEF8BDFFE705062BD5150629D538
:103A100094F841002128F5D1A068B0F5805F01D16C
:103A20002069B0B1206A411C216221680078486099
:103A3000E08C401E0004000CE084E3D12068C168E3
:103A400021F08001C1602068C16841F04001C1607F
:103A5000D8E7206A0088C0F308004860206A801C0C
:103A60002062E5E74006CDD55006CBD5CA68204692
:103A700022F04002CA6084F8413000F054F9C1E7F6
:103A80007B43000870B5040004D094F84100002581
:103A900010B106E0012070BD84F84050204600F0CF
:103AA00023F8242084F841002068C16821F40051E3
:103AB000C160204600F076FD2068016921F4904144
:103AC00001612068416921F02A0141612068C168D3
:103AD00041F40051C1606564202084F8410084F8FD
:103AE00042006563002070BD2DE9F04385B00025DC
:103AF0000095019502950395044603685548DFF843
:103B000050C102210322071580264FF0100863459B
:103B100051D1836943F480438361836903F4804313
:103B20000493836943F0040383618069DFF828917B
:103B300000F0040004900802CDE9000103926946F8
:103B40004846FEF7E1FDCDE9007569464846029515
:103B5000FEF7DAFD424F4148C7E90005C7E90256C2
:103B60003D617D61BD613846FD61FEF757FD08B1DD
:103B7000FEF772FBE7637C62394F384844371438EC
:103B8000C7E902563D617D61BD61FD61C7E900087D
:103B90003846FEF743FD08B1FEF75EFBA76300223F
:103BA000052125207C62FEF74FFF2520FEF73EFF12
:103BB00005B0BDE8F083DFF8ACC06345F8D1C36958
:103BC00043F48023C361C36903F4802304938369AE
:103BD00043F0080383618069CDE9007100F00800BB
:103BE000CDE90320204F69463846FEF78DFDF814D5
:103BF000CDE90005694638460295FEF785FD184F68
:103C0000164888373C38C7E902563D617D61BD6181
:103C1000FD61C7E900083846FEF700FD08B1FEF770
:103C20001BFBA7637C620E4F0C48CC372838C7E9D2
:103C30000005C7E902563D617D61BD613846FD6101
:103C4000FEF7ECFC08B1FEF707FBE7637C62AFE729
:103C500000380140001002400008014058000240B6
:103C6000F001002000480040000C014090F8423074
:103C7000202B01D00220704721B11AB10023036329
:103C800000F0ECBC01207047704770472DE9F84305
:103C9000044690F841001F4616460D46202802D0E3
:103CA0000220BDE8F8837DB176B100206064212058
:103CB00084F84100FEF72AFEA6848046E684A068C8
:103CC000B0F5805F02D003E00120EAE7206910B17F
:103CD0002E4600250EE000260CE08021204600F054
:103CE00005FDA0B9AEB116F8010B21684860E08C63
:103CF000401EE084E08C43464FF00002009700280D
:103D0000EBD14FF04001204600F0F0FC30B1032031
:103D1000C7E735F8020BC0F30800E6E7202084F877
:103D200041000020BDE77047FEE70000154808B5D8
:103D3000416941F0010141614069002200F0010048
:103D4000009005210C20FEF77FFE0C20FEF76EFE92
:103D5000002205210D20FEF777FE0D20FEF766FEFE
:103D6000002205210E20FEF76FFE0E20FEF75EFEFC
:103D7000002205210F20FEF767FEBDE808400F2056
:103D8000FEF754BE0010024010B500F04BFD044A8F
:103D90000021044801F028FA0349086010BD000022
:103DA00010720008953F00080000002010B586B092
:103DB000002000900190029003901248816941F028
:103DC00004018161816901F004010491816941F07C
:103DD0000801816180690C4C00F008000490002209
:103DE000C0212046FEF78CFDC020009011200190DC
:103DF000012002900320039069462046FEF784FCD0
:103E000006B010BD00100240000C014010B586B095
:103E100000241848059404940094019402944FF0EF
:103E20008041039401602F21C0E901144FF6FF7116
:103E3000C0E903148461FFF77EFA08B1FEF70CFABB
:103E4000049404A90B480594FFF7BEF808B1FEF7E7
:103E500003FA0120CDE90040029404226946054896
:103E60000394FFF7D6F9002801D0FEF7F5F906B064
:103E700010BD0000D000002010B58EB000240794C3
:103E8000089409940A940B941C2168460C94FCF73E
:103E9000D4FB2248204901604721C0E90114632175
:103EA000C0E903148461FFF7CDF808B1FEF7D4F937
:103EB0004FF48050079007A91848FFF73BF908B165
:103EC000FEF7CAF91548FFF7D4FB08B1FEF7C4F9AD
:103ED0000B940BA911480C94FFF776F808B1FEF784
:103EE000BBF96020CDE90004022002900822694657
:103EF00004940A48FFF757FB08B1FEF7ADF90C220E
:103F000069460648FFF74FFB08B1FEF7A5F90348DD
:103F1000FFF722FB0EB010BD000400401801002086
:103F20000C4810B50A4901604FF4E13141600021AD
:103F300081600C22C160C0E904128161C161FFF798
:103F4000A1FD002803D0BDE81040FEF785B910BDE3
:103F500000380140600100200C4810B50A4901609A
:103F60004FF4E1314160002181600C22C160C0E961
:103F700004128161C161FFF785FD002803D0BDE80F
:103F80001040FEF769B910BD00480040A8010020AC
:103F9000FEE7FEE7012001F01DF8FBE710B5502019
:103FA00080F31188BFF34F8FBFF36F8F02F022FFB2
:103FB00018B104494FF080500860002080F3118848
:103FC00010BD000004ED00E030B58FB02821684638
:103FD000FCF733FB14210AA8FCF72FFB012108048E
:103FE000CDE900100024029402250491CDE9075088
:103FF0004FF4E01009906846FEF754FE08B172B61F
:10400000FEE70F20CDE90A054FF48060CDE90C40B2
:1040100002210AA80E94FEF749FD002801D072B6CD
:10402000FEE70FB030BD70470148FFF7E1B900006F
:10403000D00000200148FFF7DBB90000000300209A
:10404000F0B502681C4B1D4D1D4E1E4F1E4C4FF00F
:10405000804C984209D0A04207D0604505D0A842C4
:1040600003D0B04201D0B84204D122F0700E4A68A9
:1040700042EA0E02984209D0A04207D0604505D01E
:10408000A84203D0B04201D0B84203D122F4407517
:10409000CA682A434D6922F080022A4302608A6876
:1040A000C2620A688262984201D0A04201D10969C5
:1040B000016301214161F0BD002C0140000400407A
:1040C00000080040000C00400034014010B501F031
:1040D0001F030121046A99408C430462016A9A40DB
:1040E0001143016210BD10B5846842EA032224F432
:1040F0007F440A432243826010BD826822F070022E
:104100000A4342F00701816070470000F0B5036A7E
:10411000026A22F00102026242688469124E24F0AF
:1041200073050C682C4323F002058B682B430D4D5F
:10413000A84201D0B04205D123F00807CB683B4329
:1041400023F00403A84201D0B04205D14D6922F406
:10415000407215438A692A43426084614968416319
:104160000362F0BD002C014000340140F0B5026A4A
:10417000036A23F010030362436884690D6824F422
:10418000E64444EA05248D6822F0200242EA051242
:104190000F4D104EA84201D0B04206D1CF6822F098
:1041A000800242EA071222F04002A84201D0B04247
:1041B00007D14D6923F4406343EA85038D6943EADF
:1041C000850343608461496881630262F0BD000039
:1041D000002C014000340140F0B5026A036A23F468
:1041E000807303624368C46922F4007224F073058B
:1041F0000C68124E2C438D6842EA05220E4DA842EF
:1042000001D0B04206D1CF6822F4006242EA072210
:1042100022F48062A84201D0B04207D14D6923F454
:10422000405343EA05138D6943EA05134360C461B3
:104230004968C1630262F0BD002C014000340140B6
:1042400030B5046A026A22F4805202624268C3698D
:104250000D6823F4E64343EA05238D6824F40054F3
:1042600044EA0534084DA84202D0084DA84204D1C2
:104270004D6922F4804242EA85124260C361496876
:104280000164046230BD0000002C01400034014094
:1042900010B5036A046A24F001040462846924F0FE
:1042A000F00444EA021423F00A020A438461026221
:1042B00010BD000070B5056A046A24F001040462B0
:1042C0008469124EB0420ED0114EB0420BD0B0F104
:1042D000804F08D00F4EB04205D00F4EB04202D0F2
:1042E0000E4EB04203D124F00304144301E044F025
:1042F00001041A0724F0F00444EA126225F00A03CC
:1043000001F00A0119438261016270BD002C014075
:10431000003401400004004000080040000C004050
:1043200010B5036A046A24F010040462846923F05F
:10433000A00324F4704444EA023243EA011182618A
:10434000016210BD30B5046A056A25F010050562EA
:10435000856925F4407545EA022222F470454FF63E
:10436000FF7202EA033224F0A0032A43A02404EAE5
:10437000011119438261016230BD10B5406A00210C
:10438000C185C184FFF742FA10BD70B5446A206848
:10439000406994F84110C0F3C0100025212904D1D0
:1043A00018B1E584204600F08EF82068406994F842
:1043B0004210C0F38010222904D118B1E5852046AF
:1043C00000F05AF8606C40F0100060642046FFF77F
:1043D0001DFA70BD10B50146406A096809684FF0C2
:1043E000000289062ED4C28501680C3151E8003FD5
:1043F00023F4807341E80034002CF5D101681431B6
:1044000051E8003F23F0010341E80034002CF5D1CE
:104410000168143151E8003F23F0400341E80034C3
:10442000002CF5D1202180F84210016B012909D11F
:1044300001680C3151E8003F23F0100341E80034DB
:10444000002CF5D14263016B012902D0FFF71CFC5F
:1044500010BD818DFFF7A1F910BD10B5406A012193
:104460004163016B012902D0FFF70FFC10BD818D64
:104470004908FFF792F910BD01680C3151E8002F8F
:1044800022F4907241E80023002BF5D10168143129
:1044900051E8002F22F0010241E80023002BF5D162
:1044A000016B012909D101680C3151E8002F22F07C
:1044B000100241E80023002BF5D1202180F84210A2
:1044C00000210163704701680C3151E8002F22F090
:1044D000C00241E80023002BF5D1202180F84110D3
:1044E000704708B590F84210222901D0022008BD7B
:1044F00082684FF480539A4201D1016921B1816AE7
:104500009A421BD04AB10AE00268816A5268C2F33B
:1045100008020A80816A891C08E0026972B1026897
:10452000526802F07F020A70816A491C8162C18D63
:10453000491E0904090CC18503D01BE002685268BA
:10454000F1E70168CA6822F02002CA600168CA68FF
:1045500022F48072CA6001684A6922F001024A614D
:10456000202180F8421000214163026B012A03D010
:10457000FFF78AFB002008BD016301680C3151E898
:10458000002F22F0100241E80023002BF5D1016832
:104590000A68D20602D50A6849680091818DFFF742
:1045A000FCF8E7E770B5044600680169E26821F4A9
:1045B0004051114301612169A068084361690843C2
:1045C0002168CA6841F20C639A430243CA602068BA
:1045D0004169A26921F44071114341611E4920687B
:1045E000884202D1FEF728FB01E0FEF715FB00EB45
:1045F000C00101EB0012606864218000B2FBF0F39F
:10460000B3FBF1F36FF018067343B2FBF0F5B2FBA6
:10461000F0F605EB8305322303EB0515B5FBF1F549
:10462000B6FBF1F605F0F00505EB0615B2FBF0F66A
:10463000B2FBF0F0B0FBF1F06FF01802504306EB64
:10464000800003EB0010B0FBF1F0216800F00F00D8
:104650002844886070BD00000038014038B5816290
:1046600004468285002013466064222284F842209A
:10467000E56B1B4AAA62E56B1A4AEA62E56B1A4AC5
:104680002A63E26B50630A462168E06B091DFEF75E
:1046900003F82068016840680090206948B12068EC
:1046A0000C3050E8001F41F4807140E80012002AED
:1046B000F5D12068143050E8001F41F0010140E8B6
:1046C0000012002AF5D12068143050E8001F41F094
:1046D000400140E80012002AF5D1002038BD00005A
:1046E000D54300085B4400088B4300082DE9F041E6
:1046F000984617460E460446069D27E0681C25D0BE
:104700002DB1FEF703F9A0EB0800A8421ED92068DE
:104710000C3050E8001F21F4D07140E80012002A4C
:10472000F5D12068143050E8001F21F0010140E865
:104730000012002AF5D1202084F8410084F84200BC
:10474000002084F840000320BDE8F0812068006864
:1047500036EA000004D00020B842CFD00020F3E7B2
:104760000120F9E710B5044801F018FCBDE810403D
:104770000248FFF751B80000202800206001002007
:10478000FEE7490050EAC12018BF04204A0D18BFB7
:1047900040F0010040F2FF72B2EB515F08BF40F001
:1047A0000200012808BF052070470907090E0028EC
:1047B00004DB00F1E02080F80014704700F00F00E7
:1047C00000F1E02080F8141D704730380A2801D22B
:1047D00001207047002070471CB500F095F900F0EB
:1047E00045F80A480A49401A0C21B0FBF1F1084883
:1047F00000F032F9002000900190064B4FF48072D7
:1048000005A1074802F084FA01201CBD9474000839
:10481000587400081C28002074436C6900000000D4
:104820007D55000810B500F027FB074800F06EFB2F
:10483000012000F01BFBFFF7CFFF00F06FFBBDE88E
:10484000104001F049BB00006001002010B54FF49A
:1048500080710448FBF7F1FE03480021C16001614B
:1048600010BD00009C1C00208C00002000B502211F
:10487000024800F0F1F8012000BD0000607200085D
:104880002DE9F04391B00F46044600F0CDF9DFF872
:104890006081002841D1574E81460A2F54D004DC54
:1048A000082F1AD0092F04D13EE00D2F4CD07F2FB6
:1048B00013D0D8F80C004546FF2874D829698142E6
:1048C0007FD2421A3144481CFBF73BFE286931185D
:1048D000375449A0A0472E696FE0D8F8100045462C
:1048E000002878D0E968401E491EC5E903108142BE
:1048F00014D90A1A3044411CFBF723FEE96806F874
:104900000190286931183DA0A0472E6902E03DA022
:10491000A047761CE8688642F9D95CE03AA0A04737
:10492000E96806F8019056E098F801004546092824
:1049300008D000232E4A2F490C32204600F01EFAE0
:10494000E86847E00123F5E72A48C8F81490FBF728
:1049500049FD68B12DA0A04701F092FA2548002535
:104960002BA1FBF715FD00906E465DF825000AE0CF
:10497000FFF76CFF27A036E025A10020FBF708FD1C
:104980006D1C46F825000028F6D1009800F01EF9AD
:1049900058B183686A46294620469847FFF756FF74
:1049A0001CA0A04717E01BE00BE01CA022460099CA
:1049B0009047F3E713A0A047761CE8688642F9D336
:1049C00003E0375439461BA0A047E868401CE86064
:1049D0002869401C286188F8017011B0BDE8F08397
:1049E000FFF734FF14A011B0A446BDE8F0436047C0
:1049F0008C0000209C1C00202573000008257320DB
:104A00002008000008000000082008000D0A00002F
:104A1000200000000D0A3E2000000000556E6B6E65
:104A20006F776E20636F6D6D616E643A2025730A37
:104A300000000000256300000D0A074552523A208D
:104A4000436F6D6D616E6420746F6F206C6F6E6765
:104A50000D0A3E200000000010B5084CA268102A84
:104A600001D3002010BD064B43F8320003EBC20017
:104A7000521C41600120A26010BD00008C0000208B
:104A80001C1C002070B515460446022904DAA44611
:104A9000BDE8704008A06047686800F097F838B13A
:104AA0004168002907D00FA0A446BDE870406047C8
:104AB0000DA06968F8E770BD4572726F723A204EBA
:104AC0006F2066756E6374696F6E207370656369BD
:104AD00066696564202874727920606C69737460FB
:104AE000290A000025730A004572726F722C206338
:104AF0006F6D6D616E642060257360206E6F742031
:104B0000666F756E640A0000012070472DE9F0475A
:104B1000064614A216A118A0B0471AA0B047002458
:104B2000DFF8A0804FF0040ADFF89C9014E0002525
:104B300008EBC4070CE000BF58F8341005EB450043
:104B40000AEB80028A5851F820100BA0B0476D1C68
:104B50007968A942F0D8641CD9F808008442E6D3E9
:104B6000BDE8F0874465736372697074696F6E00A5
:104B7000436F6D6D616E6400252D32307325730DAA
:104B80000A0000002D2D2D2D2D2D2D2D2D2D2D2DFF
:104B90002D2D2D2D2D2D2D2D2D2D2D2D2D2D2D2D45
:104BA0002D2D2D2D2D2D2D2D2D2D2D2D2D2D2D2D35
:104BB0002D2D2D2D2D2D2D2D2D2D2D2D2D2D2D0D45
:104BC0000A0000001C1C00208C0000202DE9F0478A
:104BD00081460024124EDFF84C8012E0002506EBDF
:104BE000C4070AE056F8340005EB450150F82110DF
:104BF0004846FBF775FD58B16D1C7868A842F1D89E
:104C0000641CD8F808008442E8D30020BDE8F0878F
:104C100056F8340005EB450100EB8100F6E7000093
:104C20001C1C00208C0000202DE9F041484C064659
:104C30000D4600276068394630B1012809D00228A6
:104C40000ED003287FD070E01B2D6ED1012738468F
:104C500077E05B2D01D04F2D67D10127022070E056
:104C6000412D5CD3442D5AD8394861600127C16871
:104C7000DFF8E0804069412D08D0422D22D0344831
:104C8000432D006941D0442D50D138E0A2699042B3
:104C900052D220223048FBF7C8FC2F492FA0B04742
:104CA00061692D4808EB0121FBF778FB2A48FBF7E7
:104CB00099FBE060206128492CA0B0476069401C46
:104CC000606133E0B0B320222348FBF7AEFC2249F9
:104CD00022A0B0476069401E60610DD008EB002142
:104CE0001D48FBF75BFB1C48FBF77CFBE060206189
:104CF00019491EA0B04719E0FFF7A8FD16E0A8B1BA
:104D00001BA0B0472069401E07E088420ED212491E
:104D1000095C18A0B0472069401C206106E0462DC0
:104D20000AD0312D0BD0332D09D061602570384663
:104D3000BDE8F08100E006E00FA0B047F6E70127EC
:104D400003206060F2E70CA0B0470127EEE7000007
:104D50008C0000209C1D00209C1C00200D25732031
:104D60002020202020200D3E200000002573000080
:104D70000800000025630000070000002DE9FF5F28
:104D80000026B14634463546DFF8C0A041E0002792
:104D90000AEBC50838E000BF5AF8350007EB4701B9
:104DA00000EB810B50F82110029802680198FBF784
:104DB00038FB40BBB9F1000F05D0039898B1B9F1A9
:104DC000010F07D00AE0DBF800603046FBF70AFB72
:104DD000044616E0009A31461DA09047009A1EA096
:104DE000DBF80010904723460024DBF8002000E0A9
:104DF000641C305D115D884203D110B109B19C4241
:104E0000F6D309F101097F1CD8F80410B942C3D8C0
:104E10006D1C134880688542B9D3002E13D02246FA
:104E200031460198FBF730FC0198FBF7DBFA029959
:104E30000022086001990A54DDE9002104B009A0AC
:104E4000BDE8F05F1047BDE8FF9F00001C1C00207C
:104E50000D0A25730D0A000025730D0A00000000DD
:104E60008C0000200D3E20257300000001490870D1
:104E700001207047A800002010B5002000F046F97E
:104E8000024948600120487010BD0000A8000020C1
:104E90000FB470B51B4D01242878022801D00428D6
:104EA00006D100F00DFD18B1002070BC5DF814FBB8
:104EB00000F006FD38B1502080F31188BFF34F8F0A
:104EC000BFF36F8F04E04FF0FF31686800F0E8F83F
:104ED00005AA0D480499FBF73BFA81B2287801280E
:104EE00003D10948FDF7A4F9044600F0E9FC18B124
:104EF000002080F3118802E0686800F047F920463E
:104F0000D3E70000A80000209C2700200249486049
:104F10000120087070470000B00000201CB500F0B0
:104F20002BF800210120CDE900010B46802204A1CD
:104F3000064801F0EDFE06A0FFF7AAFF01201CBD08
:104F40006C616D705F7461736B000000714F0008DD
:104F50006C616D7020696E697469616C697A6564F1
:104F6000207375636365737366756C6C790D0A00E5
:104F7000642000F02FF8FBE710B5084C208800F003
:104F800067FF608800F04CFF08210548FEF7A0FB92
:104F9000BDE810400C210248FEF79ABBB800002083
:104FA00018010020FDF7C0FCFFF70EF8FEF7FEFE2B
:104FB000FEF7BCFEFEF7B4FFFEF75EFFFEF7CCFF88
:104FC000FEF724FF00F030F8FEF7DEFE00F048F8B0
:104FD000FEE7000010B5EFF3058149B9EFF310814A
:104FE00031B908490968022905D1EFF3118111B1DE
:104FF0006FF0050403E0002408B101F073F92046C6
:1050000010BD00006400002010B501F0DFFE38B1D3
:10501000022804D003480068012800D0002010BDF9
:10502000032010BD64000020EFF3058058B9EFF3B2
:10503000108040B909490868022801D030B109E060
:10504000EFF3118030B16FF0050070470120086068
:10505000002070474FF0FF307047000064000020D0
:1050600010B5EFF3058060B9EFF3108048B90B4934
:105070000868022802D0012806D00BE0EFF3118067
:1050800040B16FF0050010BD0220086001F0DAF9B0
:10509000002010BD4FF0FF3010BD00006400002064
:1050A0002DE9F0410D46014621F0010001F001011A
:1050B0004FF00004EFF305824AB9EFF3108232B9E2
:1050C000114A1268022A05D1EFF3118212B16FF072
:1050D000050416E048B100296FF001066FF00207E1
:1050E000294608D001F0BAFD07E06FF0030408E09C
:1050F00035B1344605E001F0F5FC0128F8D100E0B7
:105100003C462046BDE8F0816400002070B50546AD
:105110004FF00004EFF30580A0BBEFF3108088BBD5
:1051200019480068022802D1EFF3118050BB0DB17D
:10513000686800E00020C10701D0012600E00026D9
:1051400000071FD46DB1D5E9021021B1502819D341
:105150001EB1042002E020B114E0012001F04FFA5A
:1051600005E00EB1042000E0012001F03DFA04004A
:1051700008D00DB1296800E0002101F07DF80EB1E2
:1051800044F00104204670BD6400002070B5014663
:1051900021F0010001F001014FF00004EFF305825E
:1051A0004AB9EFF3108232B90E4A1268022A05D1C9
:1051B000EFF3118212B16FF0050411E028B16FF026
:1051C000020529B101F0D2FB07E06FF0030407E00C
:1051D00000231A46194601F0BBFA012800D02C46DC
:1051E000204670BD64000020F0B585B04FEA010391
:1051F0004FF00004EFF305810394A1BBEFF310819E
:1052000089BB21490968022902D1EFF3118151BB01
:1052100048B3802618218DF8104004AD42B31768BA
:1052200007B13D4697691FB139467F1E382F02D21C
:105230001779FF0702D0002005B0F0BD576907B10C
:10524000BE08D2F808C0BCF1000F0DD0D4685C2CA9
:1052500018D312693AB137B18DE8061032462946A3
:1052600001F083FD03900DE0D7685FB912694AB978
:1052700003AACDE90012B2B2294601F049FD012886
:1052800000D003940398D7E7640000202DE9F04193
:10529000134C0F46054666692068001D00F0F3FEBA
:1052A000681C07D137B12168BDE8F0410D48091DE0
:1052B00000F038BF20683544B5424560216805D20A
:1052C000A068BDE8F041091D00F014BF6068091D29
:1052D00000F010FF206B854200D22563BDE8F0810D
:1052E00014000020380800202DE9F041054600F0A8
:1052F00025FF2D4C2069401C206120682B4F10B1E8
:10530000E06930B32BE025602069012827D1002611
:1053100006EB860007EB800000F0DEFE761C382EE0
:10532000F6D3234800F0D8FE2148143000F0D4FE14
:105330001F48283000F0D0FE1D483C3000F0CCFE65
:105340001B48503000F0C8FE194860601430A0605F
:1053500005E02068E96AC06A884200D82560E06AF2
:10536000401CE0626864E86AA169884200D9A061D3
:1053700000EB800007EB8000291D00F0D3FE00F059
:10538000FDFEE06900280CD02068E96AC06A884206
:1053900007D208494FF080500860BFF34F8FBFF32A
:1053A0006F8FBDE8F081000014000020880300200A
:1053B000E807002004ED00E038B500F0BFFE104C17
:1053C000A068C8B90F4800F087FE0E48143000F0FE
:1053D00083FE0C482060143060600A4B00202833A4
:1053E000009003F1500210210A2001F039F9A06069
:1053F00010B105A100F040FFBDE8384000F0BEBE8E
:10540000500000204C080020546D72510000000034
:1054100070B516460446032901D00DA013E0144DC3
:1054200070686968FBF75CF908B112A00BE0B0681E
:10543000FAF7A0FF002803DD0120287015A002E084
:105440000020287017A0A446BDE870406047000007
:10545000434C49206572726F723A2077726F6E67A3
:1054600020706172616D65746572730D0A000000D1
:10547000BC000020434C49206572726F723A20775D
:10548000726F6E6720636F6E666967206D61726B05
:105490000A000000456E61626C6520636C69206FD4
:1054A0006B0A000044697361626C6520636C69205B
:1054B0006F6B0D0A0000000001460948007860B1DA
:1054C000BFF34F8F07480168074A01F4E0611143B9
:1054D0000160BFF34F8F00BFFDE704A00847000045
:1054E000BC0000200CED00E00400FA05506C656182
:1054F000736520656E61626C6520636C6920666906
:105500007273740A000000000FB470B5094C05AA4C
:1055100004F5B87005460499FAF71AFF0204120C54
:1055200005D04FF47A732946201D00F0EFFC70BCC3
:105530005DF814FB1C280020F8B5074600200E4635
:1055400015460446009008E0391900236A46D5F84C
:105550002C0101F0ADF9641CA4B2B442F4D300985C
:1055600038B105494FF080500860BFF34F8FBFF34B
:105570006F8F0120F8BD000004ED00E01CB504466B
:1055800001210022080201F047F8C4F82C0110485C
:10559000CDE900040F4B104A1049201D00F0CFFC4C
:1055A0000F4B104A1049201D00F0D4FC0120207040
:1055B000851E2A466946D4F82C0101F0F7F9012826
:1055C000F7D19DF800100948FFF75AF9F1E70000FC
:1055D0009B5F0008935F0008A55F0008395500082D
:1055E00034020020F001002060010020095500086D
:1055F00030B4026C0B46002A0BD0C1681144C16064
:105600004468A14201D30168C16030BC1846FAF772
:1056100053BF30BC70472DE9F041856B17460446F7
:105620000026026C82B1C7B1E068FAF745FFE16875
:10563000206C091AE1602268914202D26168081A5E
:10564000E060022F16D017E02068A8B9606801F06A
:1056500035FC0646002060600EE0A068FAF72CFFDB
:10566000216CA0680844A0606168884204D3206867
:10567000A06001E005B16D1E6D1CA5633046BDE85C
:10568000F08110B5044690F8590058B101280CD0AB
:1056900002280FD0502080F31188BFF34F8FBFF343
:1056A0006F8FFEE7206B00F07DFD2046BDE81040C7
:1056B00000F078BD10BD000010484FF44061420773
:1056C00006D0C01D0D4920F00700411AC1F5406108
:1056D0000B4A00230144C2E900030839103A21F0C3
:1056E000070111604B600B600B1AC0E90013936057
:1056F0004FF000405360D060704700001C10002045
:1057000078000020144E154CA6F29C474FF08058AC
:10571000DFF84C9012E000BF00F010FDF068C568A3
:10572000281D00F0B0FC2069401E2061E068401E8A
:10573000E06000F023FD2846FFF7A3FFE0680028A3
:10574000EAD138680128F9D9C9F80080BFF34F8F32
:10575000BFF36F8FF2E70000240800201400002040
:1057600004ED00E0002807D00021416001600B46F5
:105770000A46C16000F0ECBF7047000070B51D46DE
:10578000049C51B1C4F80020C4E90F010121204656
:1057900000F09AFF84F84C5070BD2460F4E72DE9C6
:1057A000F0470E46DDE90984174682469100994686
:1057B000089DA522206BFAF738FF6FF00301206BDC
:1057C00001EB8701084420F00707780707D0502035
:1057D00080F31188BFF34F8FBFF36F8FFEE722185E
:1057E000315C82F83410315C11B1401C1028F6D3C2
:1057F000002684F84360382D00D33725E562C4E9DC
:105800001356201D00F073FC04F1180000F06FFC2B
:105810002461C5F138006462A061666584F858604F
:105820004A465146384600F0E9FA2060B8F1000FC8
:1058300001D0C8F80040BDE8F087000030B511493C
:1058400000E011460A688242FBD34B685C18844230
:1058500003D1406818444860084643681C189442C5
:1058600009D1084C103C2468A24209D052681A445D
:1058700042600A6812680260814200D0086030BD50
:105880000460F9E77800002070B5002441600B4DFA
:105890000061914206D8D11A8269914206D2011D57
:1058A000686807E09A4203D2994201D3012403E0D9
:1058B000011D286800F01EFC204670BD500000202D
:1058C00010B5FFF7A1FB022801D0002010BD012078
:1058D00010BD000010B5044600F030FCA06B28B1EC
:1058E0005FF0000400F04AFC204610BD0124F9E7F7
:1058F00030B589B0304D55E00498002806DADDE96E
:105900000601059A9047049800284BDB069C6069C5
:1059100010B1201D00F0B7FB02A800F0B9F8024654
:1059200004980A283ED2DFE800F00505053D263739
:1059300005053D260598A169034601442046FFF769
:10594000A3FF00B3616A20468847E069012829D196
:10595000002000900598A1690023421819462046AE
:1059600001F0F2FB78B9502080F31188BFF34F8F1C
:10597000BFF36F8FFEE70598A06128B18118134629
:105980002046FFF781FF0DE0502080F31188BFF320
:105990004F8FBFF36F8FFEE794F82C0010B92046AD
:1059A00000F000FC002204A9A86800F0FFFF002816
:1059B000A2D109B030BD0000500000202DE9FC410B
:1059C0000F46054600F082FD01A800F061F804468C
:1059D000019818B101F026FBBDE8FC81224EAFB161
:1059E00070680068A8B30027291B3A46B06800F029
:1059F00057FC01F017FB0028EED11C494FF08050F6
:105A00000860BFF34F8FBFF36F8FE5E7A542EBD878
:105A100001F008FB30682746C068C468201D00F00C
:105A200032FBE069012810D1A0692B4641193A46A2
:105A30002046FFF729FF40B10020034601460090B1
:105A40002A46204601F080FB20B1616A2046884743
:105A5000C2E707E0502080F31188BFF34F8FBFF3F8
:105A60006F8FFEE70127BFE75000002004ED00E044
:105A700006484168096829B14168C968C968496828
:105A8000016370474FF0FF31FAE700001400002077
:105A900070B5054601F0A8F9064E04463069844207
:105AA00003D200F009F8012000E000202860204621
:105AB000346170BD50000020F8B5194D1FE0C0687A
:105AC000C4680668201D00F0DEFA616A2046884737
:105AD000E069012813D1A0693044B04206D924619D
